{
  "contractName": "trade",
  "abi": [
    {
      "inputs": [],
      "payable": false,
      "stateMutability": "nonpayable",
      "type": "constructor",
      "signature": "constructor"
    },
    {
      "anonymous": false,
      "inputs": [
        {
          "indexed": false,
          "name": "itemId",
          "type": "uint256"
        },
        {
          "indexed": false,
          "name": "owner",
          "type": "string"
        },
        {
          "indexed": false,
          "name": "price",
          "type": "uint256"
        }
      ],
      "name": "Newitem",
      "type": "event",
      "signature": "0x8433c82e195aeab7ed6eae105c46d8f74f00e5cd0311d1dee0351c0db6c98365"
    },
    {
      "anonymous": false,
      "inputs": [
        {
          "indexed": false,
          "name": "itemiId",
          "type": "uint256"
        },
        {
          "indexed": false,
          "name": "seller",
          "type": "address"
        },
        {
          "indexed": false,
          "name": "buyer",
          "type": "address"
        }
      ],
      "name": "itemSold",
      "type": "event",
      "signature": "0xe8678d3f106a49fc7574a090480d8f9dfcc7eb65bfa4de40d93ddd40cad663a1"
    },
    {
      "anonymous": false,
      "inputs": [
        {
          "indexed": false,
          "name": "tokenamount",
          "type": "uint256"
        }
      ],
      "name": "NewUser",
      "type": "event",
      "signature": "0x70b8515497d1bc3e1ae7202216a929ffa07f703541985ee77912b7d1390dfbdb"
    },
    {
      "constant": false,
      "inputs": [],
      "name": "register",
      "outputs": [],
      "payable": false,
      "stateMutability": "nonpayable",
      "type": "function",
      "signature": "0x1aa3a008"
    },
    {
      "constant": false,
      "inputs": [
        {
          "name": "_newOwner",
          "type": "string"
        },
        {
          "name": "_itemId",
          "type": "uint256"
        }
      ],
      "name": "buy",
      "outputs": [],
      "payable": false,
      "stateMutability": "nonpayable",
      "type": "function",
      "signature": "0x0ca5c504"
    },
    {
      "constant": false,
      "inputs": [
        {
          "name": "_owner",
          "type": "string"
        },
        {
          "name": "_itemID",
          "type": "uint256"
        },
        {
          "name": "_price",
          "type": "uint256"
        }
      ],
      "name": "putItemOnSell",
      "outputs": [],
      "payable": false,
      "stateMutability": "nonpayable",
      "type": "function",
      "signature": "0x3dcee8a2"
    },
    {
      "constant": true,
      "inputs": [
        {
          "name": "_itemID",
          "type": "uint256"
        }
      ],
      "name": "viewOwner",
      "outputs": [
        {
          "name": "",
          "type": "string"
        }
      ],
      "payable": false,
      "stateMutability": "view",
      "type": "function",
      "signature": "0x92eb104c"
    },
    {
      "constant": true,
      "inputs": [],
      "name": "viewAmountOwn",
      "outputs": [
        {
          "name": "",
          "type": "uint256"
        }
      ],
      "payable": false,
      "stateMutability": "view",
      "type": "function",
      "signature": "0x0d53cdb0"
    },
    {
      "constant": true,
      "inputs": [],
      "name": "viewTokenOwn",
      "outputs": [
        {
          "name": "",
          "type": "uint256"
        }
      ],
      "payable": false,
      "stateMutability": "view",
      "type": "function",
      "signature": "0x23025ccc"
    }
  ],
  "bytecode": "0x608060405234801561001057600080fd5b50336103f860006101000a81548173ffffffffffffffffffffffffffffffffffffffff021916908373ffffffffffffffffffffffffffffffffffffffff1602179055506110c9806100626000396000f3fe608060405260043610610078576000357c0100000000000000000000000000000000000000000000000000000000900463ffffffff1680630ca5c5041461007d5780630d53cdb01461014f5780631aa3a0081461017a57806323025ccc146101915780633dcee8a2146101bc57806392eb104c14610298575b600080fd5b34801561008957600080fd5b5061014d600480360360408110156100a057600080fd5b81019080803590602001906401000000008111156100bd57600080fd5b8201836020820111156100cf57600080fd5b803590602001918460018302840111640100000000831117156100f157600080fd5b91908080601f016020809104026020016040519081016040528093929190818152602001838380828437600081840152601f19601f8201169050808301925050505050505091929192908035906020019092919050505061034c565b005b34801561015b57600080fd5b50610164610819565b6040518082815260200191505060405180910390f35b34801561018657600080fd5b5061018f6108be565b005b34801561019d57600080fd5b506101a6610a56565b6040518082815260200191505060405180910390f35b3480156101c857600080fd5b50610296600480360360608110156101df57600080fd5b81019080803590602001906401000000008111156101fc57600080fd5b82018360208201111561020e57600080fd5b8035906020019184600183028401116401000000008311171561023057600080fd5b91908080601f016020809104026020016040519081016040528093929190818152602001838380828437600081840152601f19601f8201169050808301925050505050505091929192908035906020019092919080359060200190929190505050610afb565b005b3480156102a457600080fd5b506102d1600480360360208110156102bb57600080fd5b8101908080359060200190929190505050610ea4565b6040518080602001828103825283818151815260200191508051906020019080838360005b838110156103115780820151818401526020810190506102f6565b50505050905090810190601f16801561033e5780820380516001836020036101000a031916815260200191505b509250505060405180910390f35b6103f860009054906101000a900473ffffffffffffffffffffffffffffffffffffffff1673ffffffffffffffffffffffffffffffffffffffff163373ffffffffffffffffffffffffffffffffffffffff161415156103a957600080fd5b6103b1610fb9565b60008260fd811015156103c057fe5b6004020160806040519081016040529081600082018054600181600116156101000203166002900480601f0160208091040260200160405190810160405280929190818152602001828054600181600116156101000203166002900480156104695780601f1061043e57610100808354040283529160200191610469565b820191906000526020600020905b81548152906001019060200180831161044c57829003601f168201915b5050505050815260200160018201548152602001600282015481526020016003820160009054906101000a900473ffffffffffffffffffffffffffffffffffffffff1673ffffffffffffffffffffffffffffffffffffffff1673ffffffffffffffffffffffffffffffffffffffff16815250509050806060015173ffffffffffffffffffffffffffffffffffffffff163373ffffffffffffffffffffffffffffffffffffffff161415151561051d57600080fd5b80604001516103f660003373ffffffffffffffffffffffffffffffffffffffff1673ffffffffffffffffffffffffffffffffffffffff168152602001908152602001600020541015151561057057600080fd5b80604001516103f660003373ffffffffffffffffffffffffffffffffffffffff1673ffffffffffffffffffffffffffffffffffffffff1681526020019081526020016000206000828254039250508190555080604001516103f66000836060015173ffffffffffffffffffffffffffffffffffffffff1673ffffffffffffffffffffffffffffffffffffffff1681526020019081526020016000206000828254019250508190555060016103f56000836060015173ffffffffffffffffffffffffffffffffffffffff1673ffffffffffffffffffffffffffffffffffffffff1681526020019081526020016000206000828254039250508190555033816060019073ffffffffffffffffffffffffffffffffffffffff16908173ffffffffffffffffffffffffffffffffffffffff16815250508281600001819052506000826040516020018082815260200191505060405160208183030381529060405280519060200120600190049050806103f460003373ffffffffffffffffffffffffffffffffffffffff1673ffffffffffffffffffffffffffffffffffffffff168152602001908152602001600020819055507fe8678d3f106a49fc7574a090480d8f9dfcc7eb65bfa4de40d93ddd40cad663a181836060015133604051808481526020018373ffffffffffffffffffffffffffffffffffffffff1673ffffffffffffffffffffffffffffffffffffffff1681526020018273ffffffffffffffffffffffffffffffffffffffff1673ffffffffffffffffffffffffffffffffffffffff168152602001935050505060405180910390a16103f560003373ffffffffffffffffffffffffffffffffffffffff1673ffffffffffffffffffffffffffffffffffffffff1681526020019081526020016000206000815480929190600101919050555050505050565b60006103f860009054906101000a900473ffffffffffffffffffffffffffffffffffffffff1673ffffffffffffffffffffffffffffffffffffffff163373ffffffffffffffffffffffffffffffffffffffff1614151561087857600080fd5b6103f560003373ffffffffffffffffffffffffffffffffffffffff1673ffffffffffffffffffffffffffffffffffffffff16815260200190815260200160002054905090565b6103f860009054906101000a900473ffffffffffffffffffffffffffffffffffffffff1673ffffffffffffffffffffffffffffffffffffffff163373ffffffffffffffffffffffffffffffffffffffff1614151561091b57600080fd5b600015156103f760003373ffffffffffffffffffffffffffffffffffffffff1673ffffffffffffffffffffffffffffffffffffffff16815260200190815260200160002060009054906101000a900460ff16151514151561097b57600080fd5b60016103f760003373ffffffffffffffffffffffffffffffffffffffff1673ffffffffffffffffffffffffffffffffffffffff16815260200190815260200160002060006101000a81548160ff0219169083151502179055506101f46103f660003373ffffffffffffffffffffffffffffffffffffffff1673ffffffffffffffffffffffffffffffffffffffff168152602001908152602001600020819055507f70b8515497d1bc3e1ae7202216a929ffa07f703541985ee77912b7d1390dfbdb6101f46040518082815260200191505060405180910390a1565b60006103f860009054906101000a900473ffffffffffffffffffffffffffffffffffffffff1673ffffffffffffffffffffffffffffffffffffffff163373ffffffffffffffffffffffffffffffffffffffff16141515610ab557600080fd5b6103f660003373ffffffffffffffffffffffffffffffffffffffff1673ffffffffffffffffffffffffffffffffffffffff16815260200190815260200160002054905090565b6103f860009054906101000a900473ffffffffffffffffffffffffffffffffffffffff1673ffffffffffffffffffffffffffffffffffffffff163373ffffffffffffffffffffffffffffffffffffffff16141515610b5857600080fd5b60008260fd81101515610b6757fe5b600402016000016040516020018082805460018160011615610100020316600290048015610bcc5780601f10610baa576101008083540402835291820191610bcc565b820191906000526020600020905b815481529060010190602001808311610bb8575b505091505060405160208183030381529060405280519060200120836040516020018082805190602001908083835b602083101515610c205780518252602082019150602081019050602083039250610bfb565b6001836020036101000a0380198251168184511680821785525050505050509050019150506040516020818303038152906040528051906020012014151515610c6857600080fd5b6080604051908101604052808481526020018381526020018281526020013373ffffffffffffffffffffffffffffffffffffffff1681525060008360fd81101515610caf57fe5b600402016000820151816000019080519060200190610ccf929190610ff8565b50602082015181600101556040820151816002015560608201518160030160006101000a81548173ffffffffffffffffffffffffffffffffffffffff021916908373ffffffffffffffffffffffffffffffffffffffff1602179055509050506000826040516020018082815260200191505060405160208183030381529060405280519060200120600190049050806103f460003373ffffffffffffffffffffffffffffffffffffffff1673ffffffffffffffffffffffffffffffffffffffff168152602001908152602001600020819055506103f560003373ffffffffffffffffffffffffffffffffffffffff1673ffffffffffffffffffffffffffffffffffffffff168152602001908152602001600020600081548092919060010191905055507f8433c82e195aeab7ed6eae105c46d8f74f00e5cd0311d1dee0351c0db6c983658185846040518084815260200180602001838152602001828103825284818151815260200191508051906020019080838360005b83811015610e62578082015181840152602081019050610e47565b50505050905090810190601f168015610e8f5780820380516001836020036101000a031916815260200191505b5094505050505060405180910390a150505050565b60606103f860009054906101000a900473ffffffffffffffffffffffffffffffffffffffff1673ffffffffffffffffffffffffffffffffffffffff163373ffffffffffffffffffffffffffffffffffffffff16141515610f0357600080fd5b60008260fd81101515610f1257fe5b600402016000018054600181600116156101000203166002900480601f016020809104026020016040519081016040528092919081815260200182805460018160011615610100020316600290048015610fad5780601f10610f8257610100808354040283529160200191610fad565b820191906000526020600020905b815481529060010190602001808311610f9057829003601f168201915b50505050509050919050565b608060405190810160405280606081526020016000815260200160008152602001600073ffffffffffffffffffffffffffffffffffffffff1681525090565b828054600181600116156101000203166002900490600052602060002090601f016020900481019282601f1061103957805160ff1916838001178555611067565b82800160010185558215611067579182015b8281111561106657825182559160200191906001019061104b565b5b5090506110749190611078565b5090565b61109a91905b8082111561109657600081600090555060010161107e565b5090565b9056fea165627a7a72305820b52b3105b8419b41ff00455c2b33b00c4c5c0ec487086df78768f23ae46173030029",
  "source": "pragma solidity ^0.5.0;\n\ncontract trade{\n\n\n\n\n\n    event Newitem(uint itemId, string owner, uint price);\n    event itemSold(uint itemiId, address seller, address buyer);\n    event NewUser(uint tokenamount);\n\n    struct item{\n        string owner;\n        uint itemId;\n        uint price;\n        address ownerAddress;\n    }\n\n\n    item[ 2^256-1] itemForSell;\n\n\n    mapping (address => uint) itemsOwn;\n    mapping (address => uint) amountOwn;\n    mapping (address => uint) tokenOwn;\n    mapping (address=>bool) initialized;\n\n        address isowner;\n\n        modifier owner{\n            require(msg.sender==isowner);\n            _;\n        }\n\n        constructor () public {\n            isowner = msg.sender;\n        }\n\n\n\n        function register() public owner{\n\n            require(initialized[msg.sender]==false);\n            initialized[msg.sender]=true;\n            tokenOwn[msg.sender]=500;\n            emit NewUser(500);\n\n        }\n\n\n        function buy(string memory _newOwner, uint  _itemId) public owner{\n          item memory getItem = itemForSell[_itemId];\n          require(msg.sender!=getItem.ownerAddress);\n          require(tokenOwn[msg.sender]>=getItem.price);\n          tokenOwn[msg.sender]-=getItem.price;\n          tokenOwn[getItem.ownerAddress]+=getItem.price;\n          amountOwn[getItem.ownerAddress]-=1;\n          getItem.ownerAddress = msg.sender;\n          getItem.owner =_newOwner;\n          uint confirmId = uint(keccak256(abi.encodePacked(_itemId)));\n          itemsOwn[msg.sender]=confirmId;\n          emit itemSold(confirmId ,getItem.ownerAddress, msg.sender);\n           amountOwn[msg.sender]++;\n        }\n\n        function putItemOnSell(string  memory _owner, uint _itemID, uint _price) public owner{\n            require(keccak256(abi.encodePacked(_owner))!=keccak256(abi.encodePacked(itemForSell[_itemID].owner)));\n            itemForSell[_itemID] =item(_owner,_itemID, _price, msg.sender);        //add to an array into specific index\n            uint confirmId =uint(keccak256(abi.encodePacked(_itemID)));\n            itemsOwn[msg.sender] = confirmId;\n            amountOwn[msg.sender]++;\n            emit Newitem(confirmId, _owner, _price);       //brodcast into blockchain\n        }\n\n        function viewOwner(uint _itemID) public owner view returns(string memory){\n            return itemForSell[_itemID].owner;\n\n        }\n        function viewAmountOwn() public owner view returns(uint){\n            return amountOwn[msg.sender];\n\n        }\n        function viewTokenOwn() public view owner returns(uint){\n            return tokenOwn[msg.sender];\n\n        }\n}\n",
  "sourcePath": "C:/Users/Jeffr/OneDrive/Desktop/blockchain/trade/contracts/trade.sol",
  "compiler": {
    "name": "solc",
    "version": "0.5.0+commit.1d4f565a.Emscripten.clang"
  },
  "schemaVersion": "3.0.2",
  "updatedAt": "2019-03-04T03:18:46.194Z",
  "devdoc": {
    "methods": {}
  },
  "userdoc": {
    "methods": {}
  }
}